:020000040800F2
:1000000000000820B90B0008310B0008390B00086C
:10001000410B0008490B0008510B000800000000CC
:10002000000000000000000000000000590B000864
:10003000670B000800000000750B0008830B000828
:10004000090C0008090C0008090C0008090C00083C
:10005000090C0008090C0008090C0008090C00082C
:10006000090C0008090C0008090C0008090C00081C
:10007000090C0008090C0008090C0008090C00080C
:10008000090C0008090C0008090C0008090C0008FC
:10009000090C0008090C0008090C0008090C0008EC
:1000A000090C0008090C0008090C0008090C0008DC
:1000B000090C0008090C0008090C0008090C0008CC
:1000C000090C0008090C0008090C0008090C0008BC
:1000D000090C0008090C0008090C0008090C0008AC
:1000E000090C0008090C0008090C0008090C00089C
:1000F000090C0008090C0008090C0008090C00088C
:10010000090C0008090C0008090C0008090C00087B
:10011000090C0008090C0008090C0008090C00086B
:10012000090C0008090C0008090C0008090C00085B
:10013000090C0008090C0008090C0008090C00084B
:10014000090C0008090C0008090C0008090C00083B
:10015000090C0008090C0008090C0008090C00082B
:10016000090C0008090C0008090C0008090C00081B
:10017000090C0008090C0008090C00080000000028
:10018000090C0008090C0008D53D0008090C0008FE
:10019000090C0008090C0008090C0008090C0008EB
:1001A0000000000000000000090C0008090C000815
:1001B000090C0008090C0008090C0008090C0008CB
:1001C000090C0008090C000800000000090C0008D8
:1001D000090C0008090C0008090C0008090C0008AB
:1001E000090C0008090C0008090C0008090C00089B
:0801F00000000000090C0008EA
:1001F80010B5054C237833B9044B13B10448AFF359
:1002080000800123237010BD54000020000000006E
:100218004050000808B5034B1BB103490348AFF32E
:10022800008008BD00000000580000204050000871
:1002380053B94AB9002908BF00281CBF4FF0FF3145
:100248004FF0FF3000F088B9ADF1080C6DE904CE2D
:1002580000F006F8DDF804E0DDE9022304B0704799
:100268002DE9F047089D8E4604468846002B4AD162
:100278008A42174662D9B2FA82F64EB1C6F1200315
:1002880001FA06F820FA03F3B74043EA0808B44035
:100298004FEA174E1FFA87FCB8FBFEF1230C0EFB42
:1002A800118843EA084301FB0CF29A4209D9FB186A
:1002B80001F1FF3080F0EA809A4240F2E78002398B
:1002C8003B449A1AA3B2B2FBFEF00EFB102243EA9B
:1002D800024300FB0CFC9C4509D9FB1800F1FF32D6
:1002E80080F0D6809C4540F2D3803B44023840EAF7
:1002F8000140A3EB0C0300211DB1F3400022C5E926
:100308000032BDE8F0878B4205D90DB1C5E900017F
:1003180000210846F5E7B3FA83F1002946D1734571
:1003280002D3824200F20581841A6EEB0302012097
:100338009046002DE5D0C5E90048E2E7002A00F024
:100348009080B2FA82F6002E40F0A4808A1A030C3C
:100358004FEA174E80B2BCB20121B2FBFEFC0EFB85
:100368001C2243EA024304FB0CF29A4207D9FB1809
:100378000CF1FF3802D29A4200F2E080C4469B1A80
:10038800B3FBFEF20EFB123340EA034302FB04F414
:100398009C4207D9FB1802F1FF3002D29C4200F2BE
:1003A800CA8002461B1B42EA0C40A5E7C1F12006A1
:1003B8008B4022FA06F71F430EFA01F420FA06F3DF
:1003C8002EFA06FE4FEA1749234300FA01F81FFAEE
:1003D80087FCBEFBF9F01C0C09FB10EE44EA0E4446
:1003E80000FB0CFEA64502FA01F209D93C1900F1FE
:1003F800FF3A80F09C80A64540F2998002383C4440
:10040800A4EB0E041FFA83FEB4FBF9F309FB1344B3
:100418004EEA044403FB0CFCA44508D93C1903F13B
:10042800FF3E80F08280A4457FD9023B3C4443EAEA
:100438000040A4EB0C04A0FB02EC64457346E146C3
:1004480062D35FD05DB1B8EB030264EB090404FA30
:1004580006F622FA01F31E43CC40C5E900640021E8
:100468004FE7B1FBF2FC010C41EA0E4180B240EAD1
:1004780001423B4638463C46B846BE462026B1FBBC
:10048800F7F1A2EB080241EA0C4166E7014618E7DA
:1004980010462CE7C6F120022EFA02F3B740B1400D
:1004A80020FA02F24FEA174E0A43B3FBFEF8BCB239
:1004B8000EFB1833110C41EA034108FB04F9B04064
:1004C80089454FEA104380B23ED9791808F1FF3CBC
:1004D80001D289451FD8A1EB0901B1FBFEF909FB3F
:1004E80004F80EFB191192B242EA0142424529D2A0
:1004F800BA1809F1FF31C4D24245C2D2A9F10201AA
:100508003A44BEE7F0459DD2BEEB02036CEB070C04
:100518000138E14696E7A7EB09094944A8F1020C1E
:10052800B1FBFEF909FB04F8DBE773467FE75046A9
:1005380066E70846FDE63B44023A33E7ACF1020CB5
:100548003B441CE749469CE7A1EB0901C446B1FBC3
:10055800FEF909FB04F8C4E7704700BF80B400AF98
:10056800044BDB681B0A03F007031846BD465DF819
:10057800047B704700ED00E080B483B000AF034611
:10058800FB7197F90730002B0BDBFB7903F01F0297
:10059800074997F907305B09012000FA02F241F890
:1005A800232000BF0C37BD465DF8047B704700BFB1
:1005B80000E100E080B483B000AF03463960FB710E
:1005C80097F90730002B0ADB3B68DAB20C4997F938
:1005D80007301201D2B20B4483F800230AE03B68CB
:1005E800DAB20849FB7903F00F03043B1201D2B2D7
:1005F8000B441A7600BF0C37BD465DF8047B704784
:1006080000E100E000ED00E080B489B000AFF860E0
:10061800B9607A60FB6803F00703FB61FB69C3F10B
:100628000703042B28BF0423BB61FB690433062B93
:1006380002D9FB69033B00E000237B614FF0FF32E6
:10064800BB6902FA03F3DA43BB681A407B699A4034
:100658004FF0FF317B6901FA03F3D9437B680B4004
:10066800134318462437BD465DF8047B704780B4B1
:1006780083B000AF78607B681B6843F001027B6839
:100688001A6000BF0C37BD465DF8047B704780B424
:1006980083B000AF78607B685B6823F490427B6826
:1006A8005A607B689B6823F02A027B689A6000BFC7
:1006B8000C37BD465DF8047B7047000080B485B0F8
:1006C80000AF7860084B1A6B07497B6813430B63CC
:1006D800054B1A6B7B681340FB60FB6800BF14373F
:1006E800BD465DF8047B70470038024080B485B091
:1006F80000AF7860084B1A6C07497B6813430B649A
:10070800054B1A6C7B681340FB60FB6800BF14370D
:10071800BD465DF8047B70470038024080B582B062
:1007280000AF78604FF40061034801F0ECF900BFB6
:100738000837BD4680BD00BF0010024080B500AF3D
:1007480000F07CF900F05DFA00F012F800F036F9DC
:1007580000F098F800F074F84FF47A7004F042FB57
:1007680003F0A4FB04F0BEFA04F05EFBFCE7000013
:1007780080B594B000AF07F11C033422002118465D
:1007880004F0ACFB07F1080300221A605A609A6073
:10079800DA601A61284B1B6C274A43F080531364B4
:1007A800254B1B6C03F080537B607B68234B1B68D5
:1007B80023F44043214A43F4804313601F4B1B68D2
:1007C80003F440433B603B680223FB610123BB62A7
:1007D8001023FB6202237B630023BB630823FB63B4
:1007E80064233B6402237B640223BB640223FB640F
:1007F80007F11C03184601F0F9FA0346002B01D053
:1008080000F048F90F23BB600223FB6090233B6193
:1008180000237B610023BB6107F108030021184610
:1008280001F092FD0346002B01D000F033F900BF20
:100838005037BD4680BD00BF003802400070004000
:1008480080B500AF0D4B0E4A1A600C4B00221A718E
:100858000A4B00225A71094B00225A61074B0022A9
:100868009A61064B01221A62044800F0DDFB034638
:10087800002B01D000F00EF900BF80BD70000020F1
:100888000030024080B5B2B000AF07F1AC030022DF
:100898001A605A609A60DA601A615A619A6107F1BF
:1008A800940300221A605A609A60DA601A615A61E9
:1008B8003B1D90220021184604F010FB4FF4805392
:1008C8007B6000233B663B1D184601F0EFFE0346A4
:1008D800002B01D000F0DEF84FF08040FFF706FF54
:1008E8001020FFF7EBFE8023C7F894300223C7F8E7
:1008F80098300323C7F89C300023C7F8A0300023A2
:10090800C7F8A4300823C7F8A83007F1940319469C
:10091800284802F0C0FB4FF48073C7F894300223D4
:10092800C7F898300323C7F89C300023C7F8A030D5
:100938000023C7F8A4300823C7F8A83007F19403A8
:1009480019461C4802F0A7FBFFF708FE03460022E1
:1009580000211846FFF758FE034619465220FFF7B4
:1009680029FE5220FFF708FE4FF4E133C7F8AC30F8
:100978000023C7F8B0300023C7F8B4300023C7F805
:10098800B8300C23C7F8BC300023C7F8C0300023A8
:10099800C7F8C43007F1AC031946074802F0C6FF90
:1009A8000548FFF774FE0448FFF761FE00BFC8372B
:1009B800BD4680BD001002400078004080B588B078
:1009C80000AF07F10C0300221A605A609A60DA60DF
:1009D8001A61184B1B6B174A43F010031363154B2E
:1009E8001B6B03F01003BB60BB68124B1B6B114AF7
:1009F80043F0010313630F4B1B6B03F001037B6090
:100A08007B6800224FF400610B4801F063F84FF453
:100A18000063FB6001233B6100237B610023BB6112
:100A280007F10C031946044800F0A8FE00BF203760
:100A3800BD4680BD003802400010024080B584B039
:100A480000AF3B4600221A605A609A60DA6000F0F4
:100A580073FA01233B7000237B7000237B601F2304
:100A68003B7287237B720023BB720023FB72012336
:100A78003B7301237B730023BB730023FB733B464B
:100A8800184600F091FA042000F06EFA00BF103703
:100A9800BD4680BD80B400AF72B600BF00BFFDE7A1
:100AA80080B483B000AF0F4B1B6C0E4A43F08053E9
:100AB80013640C4B1B6C03F080537B607B68094B01
:100AC8005B6C084A43F480435364064B5B6C03F445
:100AD80080433B603B6800BF0C37BD465DF8047B34
:100AE800704700BF0038024080B485B000AF78601E
:100AF8007B681B680A4A93420BD10A4B1B6B094A55
:100B080043F480531363074B1B6B03F48053FB6060
:100B1800FB6800BF1437BD465DF8047B704700BF13
:100B2800003002400038024080B400AF00BFFDE74B
:100B380080B400AF00BFFDE780B400AF00BFFDE7A1
:100B480080B400AF00BFFDE780B400AF00BFFDE791
:100B580080B400AF00BFBD465DF8047B704780B429
:100B680000AF00BFBD465DF8047B704780B400AF9E
:100B780000BFBD465DF8047B704780B500AF04F048
:100B880017F900F0AFF800BF80BD000080B400AFD7
:100B9800064BD3F88830054A43F47003C2F888300E
:100BA80000BFBD465DF8047B704700BF00ED00E064
:100BB800DFF834D0FFF7EAFF0C480D490D4A00234F
:100BC80002E0D458C4500433C4188C42F9D30A4AFA
:100BD8000A4C002301E013600432A242FBD304F064
:100BE80085F9FFF7ABFD70470000082000000020E2
:100BF8005400002084500008540000207C0300208A
:100C0800FEE780B500AF032000F062F90F2000F086
:100C180039F8FFF745FF0023184680BD80B500AFBF
:100C2800134B4FF0FF321A62114B00221A62104B1D
:100C38004FF0FF325A620E4B00225A620C4B4FF0B3
:100C4800FF321A610A4B00221A61094B4FF0FF323A
:100C58005A61074B00225A61054B4FF0FF329A61E7
:100C6800034B00229A6100F005F80023184680BD66
:100C78000038024080B400AF00BFBD465DF8047B79
:100C88007047000080B582B000AF7860124B1A68D8
:100C9800124B1B7819464FF47A73B3FBF1F3B2FB8E
:100CA800F3F3184600F03BF90346002B01D001236B
:100CB8000EE07B680F2B0AD8002279684FF0FF30CE
:100CC80000F011F9064A7B681360002300E0012355
:100CD80018460837BD4680BD400000204800002067
:100CE8004400002080B400AF064B1B781A46064B20
:100CF8001B681344044A136000BFBD465DF8047BBB
:100D0800704700BF480000209400002080B400AF66
:100D1800034B1B681846BD465DF8047B704700BF4F
:100D28009400002080B584B000AF7860FFF7EEFF34
:100D3800B8607B68FB60FB68B3F1FF3F05D00A4BE6
:100D48001B781A46FB681344FB6000BFFFF7DEFF01
:100D58000246BB68D31AFA689A42F7D800BF00BFA8
:100D68001037BD4680BD00BF4800002080B485B064
:100D780000AF78607B6803F00703FB600B4BDB6810
:100D8800BB60BA684FF6FF031340BB60FB681A02EA
:100D9800BB681A43064B1343BB60044ABB68D36065
:100DA80000BF1437BD465DF8047B704700ED00E0D6
:100DB8000000FA0580B400AF044BDB681B0A03F09F
:100DC80007031846BD465DF8047B704700ED00E058
:100DD80080B483B000AF03463960FB7197F90730E0
:100DE800002B0ADB3B68DAB20C4997F9073012018D
:100DF800D2B20B4483F800230AE03B68DAB2084910
:100E0800FB7903F00F03043B1201D2B20B441A76AC
:100E180000BF0C37BD465DF8047B704700E100E079
:100E280000ED00E080B489B000AFF860B9607A6086
:100E3800FB6803F00703FB61FB69C3F10703042B9D
:100E480028BF0423BB61FB690433062B02D9FB6965
:100E5800033B00E000237B614FF0FF32BB6902FADD
:100E680003F3DA43BB681A407B699A404FF0FF31BD
:100E78007B6901FA03F3D9437B680B401343184697
:100E88002437BD465DF8047B7047000080B582B00A
:100E980000AF78607B68013BB3F1807F01D3012309
:100EA8000FE00A4A7B68013B53600F214FF0FF3087
:100EB800FFF78EFF054B00229A60044B07221A6049
:100EC800002318460837BD4680BD00BF10E000E08B
:100ED80080B582B000AF78607868FFF747FF00BF41
:100EE8000837BD4680BD80B586B000AF0346B960FF
:100EF8007A60FB7300237B61FFF75CFF78617A6897
:100F0800B9687869FFF78EFF024697F90F301146E6
:100F18001846FFF75DFF00BF1837BD4680BD80B596
:100F280082B000AF78607868FFF7B0FF03461846D4
:100F38000837BD4680BD000080B400AFBFF35F8FA7
:100F480000BF074B5B6A064A23F480335362054BA4
:100F580000225A6000BFBD465DF8047B704700BFA1
:100F680000ED00E090ED00E080B483B000AF786061
:100F78000B4A7B6843F0010353600A4B5B6A094ADA
:100F880043F480335362BFF34F8F00BFBFF36F8FBB
:100F980000BF00BF0C37BD465DF8047B704700BF3B
:100FA80090ED00E000ED00E080B483B000AF786021
:100FB8007B685A781B4B9A601A4B1B69194A23F0B5
:100FC80001031361174A7B685B68D3607B681B7BEE
:100FD8001A077B68DB7A1B061A437B689B7ADB045B
:100FE8001A437B685B7B9B041A437B689B7B5B048F
:100FF8001A437B68DB7B1B041A437B685B7A1B0202
:101008001A437B681B7A5B0013437A68127811468F
:10101800044A0B43136100BF0C37BD465DF8047BDF
:10102800704700BF90ED00E080B582B000AF7860F7
:101038007B68002B01D1012354E07B685B7FDBB226
:10104800002B05D17B6800221A777868FFF74CFDE2
:101058007B6802225A777B681B79002B0CD17B684E
:101068001B68224A5A617B681B689A687B681B6800
:1010780022F018029A600CE07B6899687B68DB684C
:101088001A46786800F034F80346002B01D0012393
:1010980028E07B685B79002B05D17B681B684FF0E3
:1010A800FF321A6104E07B681B687A6812691A616A
:1010B8007B681B689B6823F060017B685A697B68C2
:1010C8001B680A439A607B681B689B6823F0800151
:1010D8007B689A697B681B680A439A607B6801226F
:1010E8005A77002318460837BD4680BDB71DC1048E
:1010F80080B487B000AFF860B9607A600023FB75F0
:101108001F233B61BB6803F00103002B02D10123BD
:10111800FB7563E000BF3B695A1E3A61002B09D09A
:101128003B6903F01F03BA6822FA03F303F00103D3
:10113800002BF0D07B68182B46D801A252F823F078
:10114800D7110008D1110008D1110008D1110008E9
:10115800D1110008D1110008D1110008D1110008DF
:10116800C5110008D1110008D1110008D1110008DB
:10117800D1110008D1110008D1110008D1110008BF
:10118800B9110008D1110008D1110008D1110008C7
:10119800D1110008D1110008D1110008D11100089F
:1011A800AD1100083B69062B13D90123FB7510E02C
:1011B8003B69072B0FD90123FB750CE03B690F2B0B
:1011C8000BD90123FB7508E00123FB7506E000BF7E
:1011D80004E000BF02E000BF00E000BFFB7D002B81
:1011E8000DD1FB681B68BA685A61FB681B689B686D
:1011F80023F01801FB681B687A680A439A60FB7D34
:1012080018461C37BD465DF8047B704780B586B02C
:1012180000AFF860B960C7E90023274B1B7D012B9D
:1012280001D1022343E0244B01221A754CF25030BD
:1012380000F078F80346FB75FB7D002B33D1FB6883
:10124800032B23D801A252F823F000BF651200082F
:10125800711200087D120008891200083B781946AF
:10126800B86800F021F912E03B881946B86800F028
:10127800F5F80CE03B681946B86800F0C9F806E0D4
:10128800D7E90023B86800F08DF800E000BF4CF201
:10129800503000F047F80346FB75084B1B69074AB6
:1012A80023F001031361044B00221A75FB7D1846D5
:1012B8001837BD4680BD00BF98000020003C0240A2
:1012C80080B483B000AF0023FB710B4B1B69002B6C
:1012D8000BDA094B094A5A60074B094A5A60064B10
:1012E8001B69002B01DA0123FB71FB7918460C37C7
:1012F800BD465DF8047B7047003C0240230167450A
:10130800AB89EFCD80B400AF054B1B69044A43F0AD
:101318000043136100231846BD465DF8047B7047FF
:10132800003C024080B584B000AF78600023FB60C9
:101338001A4B00229A61FFF7E9FCF86010E07B681D
:10134800B3F1FF3F0CD07B68002B07D0FFF7DEFC22
:101358000246FB68D31A7A689A4201D2032319E03D
:101368000F4BDB6803F48033002BE8D10C4BDB68B0
:1013780003F0F203002B03D000F0BAF8012309E0D0
:10138800074BDB6803F00103002B02D0044B01225A
:10139800DA60002318461037BD4680BD980000204B
:1013A800003C024080B485B000AFF860C7E9002374
:1013B800164B1B69154A23F440731361134B1B69C1
:1013C800124A43F440731361104B1B690F4A43F0F0
:1013D80001031361FB683A681A60BFF36F8F00BF9F
:1013E800D7E900014FF000024FF000030A00002384
:1013F800F968043113460B60BFF34F8F00BF00BF7D
:101408001437BD465DF8047B704700BF003C0240BE
:1014180080B483B000AF786039600F4B1B690E4A07
:1014280023F4407313610C4B1B690B4A43F400739C
:101438001361094B1B69084A43F0010313617B6878
:101448003A681A60BFF34F8F00BF00BF0C37BD4624
:101458005DF8047B704700BF003C024080B483B055
:1014680000AF78600B467B800E4B1B690D4A23F456
:10147800407313610B4B1B690A4A43F48073136171
:10148800084B1B69074A43F0010313617B687A889C
:101498001A80BFF34F8F00BF00BF0C37BD465DF801
:1014A800047B7047003C024080B483B000AF786092
:1014B8000B46FB700D4B1B690C4A23F440731361F8
:1014C8000A4B0A4A1B691361084B1B69074A43F018
:1014D800010313617B68FA781A70BFF34F8F00BF5E
:1014E80000BF0C37BD465DF8047B7047003C0240E6
:1014F80080B400AF214BDB6803F00203002B05D05A
:101508001F4B9B6943F020031D4A93611B4BDB680B
:1015180003F01003002B05D0194B9B6943F010030F
:10152800174A9361154BDB6803F02003002B05D0A5
:10153800134B9B6943F00803114A93610F4BDB6817
:1015480003F04003002B05D00D4B9B6943F00403C7
:101558000B4A9361094BDB6803F08003002B05D02D
:10156800074B9B6943F00203054A9361034BF22240
:10157800DA6000BFBD465DF8047B7047003C02405E
:101588009800002080B584B000AF786039600023EF
:10159800BB60304B1B7D012B01D1022356E02D4B44
:1015A80001221A754CF25030FFF7BCFE0346FB735C
:1015B800FB7B002B46D13B684FF0FF321A607B68FB
:1015C8001B68012B15D17B681B69DAB27B685B68E5
:1015D8001946104600F044F84CF25030FFF7A2FECE
:1015E8000346FB731C4B1A691B491C4B13400B61C8
:1015F80028E07B689B68BB601CE07B681B69DBB2EA
:101608001946B86800F068F84CF25030FFF78AFEC7
:101618000346FB73104B1B690F4A23F0FA0313614F
:10162800FB7B002B03D03B68BA681A600AE0BB68F2
:101638000133BB607B68DA687B689B681344BA68CF
:101648009A42DAD3034B00221A75FB7B18461037EF
:10165800BD4680BD98000020003C0240FB7FFFFF94
:1016680080B483B000AF03463960FB71194B1B6926
:10167800184A23F4407313613B68032B07D1154BB9
:101688001A69144948F2040313430B610FE03B68DD
:10169800022B06D10F4B1B690E4A43F4004313611A
:1016A80005E00C4B1B690B4A43F004031361094B1B
:1016B8001A69FB791B021343064A43F4803313610A
:1016C800BFF34F8F00BF00BF0C37BD465DF8047BEA
:1016D800704700BF003C024080B485B000AF78601E
:1016E8000B46FB700023FB60FB78002B02D1002324
:1016F800FB6010E0FB78012B03D14FF48073FB6093
:1017080009E0FB78022B03D14FF40073FB6002E081
:101718004FF44073FB607B680B2B02D97B68043362
:101728007B60154B1B69144A23F440731361124BF9
:101738001A691149FB6813430B610F4B1B690E4A69
:1017480023F0F80313610C4B1A697B68DB00134321
:10175800094A43F002031361074B1B69064A43F425
:1017680080331361BFF34F8F00BF00BF1437BD46EE
:101778005DF8047B704700BF003C024080B489B02C
:1017880000AF786039600023FB6100237B61002390
:101798003B610023BB610023FB6175E10122FB690A
:1017A80002FA03F37B613B681B687A6913403B616B
:1017B8003A697B699A4240F064813B685B6803F050
:1017C8000303012B05D03B685B6803F00303022B7E
:1017D80030D17B689B68BB61FB695B00032202FA1E
:1017E80003F3DB43BA691340BB613B68DA68FB6902
:1017F8005B0002FA03F3BA691343BB617B68BA69F9
:101808009A607B685B68BB610122FB6902FA03F39B
:10181800DB43BA691340BB613B685B681B0903F093
:101828000102FB6902FA03F3BA691343BB617B68DF
:10183800BA695A603B685B6803F00303032B17D04F
:101848007B68DB68BB61FB695B00032202FA03F378
:10185800DB43BA691340BB613B689A68FB695B006C
:1018680002FA03F3BA691343BB617B68BA69DA60A9
:101878003B685B6803F00303022B23D1FB69DA089A
:101888007B68083253F82230BB61FB6903F0070319
:101898009B000F2202FA03F3DB43BA691340BB61D2
:1018A8003B681A69FB6903F007039B0002FA03F31C
:1018B800BA691343BB61FB69DA087B680832B96906
:1018C80043F822107B681B68BB61FB695B0003223D
:1018D80002FA03F3DB43BA691340BB613B685B68F8
:1018E80003F00302FB695B0002FA03F3BA691343CE
:1018F800BB617B68BA691A603B685B6803F4403374
:10190800002B00F0BE80664B5B6C654A43F4804355
:101918005364634B5B6C03F48043FB60FB68614A70
:10192800FB699B08023352F82330BB61FB6903F063
:1019380003039B000F2202FA03F3DB43BA69134047
:10194800BB617B68584A934237D07B68574A9342B9
:1019580031D07B68564A93422BD07B68554A9342D4
:1019680025D07B68544A93421FD07B68534A9342E0
:1019780019D07B68524A934213D07B68514A9342EC
:101988000DD07B68504A934207D07B684F4A9342F8
:1019980001D1092312E00A2310E008230EE00723EF
:1019A8000CE006230AE0052308E0042306E00323ED
:1019B80004E0022302E0012300E00023FA6902F0B8
:1019C800030292009340BA691343BB613549FB692E
:1019D8009B080233BA6941F823203D4B9B68BB61E1
:1019E8003B69DB43BA691340BB613B685B6803F43E
:1019F8008013002B03D0BA693B691343BB61344A97
:101A0800BB699360324BDB68BB613B69DB43BA69F6
:101A18001340BB613B685B6803F40013002B03D0E1
:101A2800BA693B691343BB61294ABB69D360284B38
:101A38005B68BB613B69DB43BA691340BB613B68C8
:101A48005B6803F40033002B03D0BA693B69134386
:101A5800BB611F4ABB6953601D4B1B68BB613B6977
:101A6800DB43BA691340BB613B685B6803F48033AE
:101A7800002B03D0BA693B691343BB61144ABB69A5
:101A88001360FB690133FB61FB690F2B7FF686AEA0
:101A980000BF00BF2437BD465DF8047B704700BF18
:101AA80000380240003801400000024000040240B3
:101AB80000080240000C02400010024000140240DE
:101AC80000180240001C024000200240002402408E
:101AD800003C014080B483B000AF78600B467B8047
:101AE80013467B707B78002B03D07A887B689A61D9
:101AF80003E07B881A047B689A6100BF0C37BD46F7
:101B08005DF8047B704780B485B000AF78600B4601
:101B18007B807B685B69FB607A88FB6813401A04EA
:101B2800FB68D9437B880B401A437B689A6100BFE6
:101B38001437BD465DF8047B7047000080B400AFE1
:101B4800054B1B68044A43F48073136000BFBD460D
:101B58005DF8047B704700BF0070004080B400AFA0
:101B6800054B1B68044A23F48073136000BFBD460D
:101B78005DF8047B704700BF0070004080B582B0FC
:101B880000AF00237B60124B5B68114A43F400737B
:101B980053600F4B5B680E4A43F480735360FFF742
:101BA800B5F8786009E0FFF7B1F802467B68D31A08
:101BB800B3F57A7F01D9032306E0054B5B6803F090
:101BC8000803082BEFD1002318460837BD4680BD0F
:101BD8000070004080B582B000AF00237B60124BDC
:101BE8005B68114A23F4007353600F4B5B680E4A1D
:101BF80043F480735360FFF789F8786009E0FFF7D2
:101C080085F802467B68D31AB3F57A7F01D9032396
:101C180006E0054B5B6803F00803082BEFD00023B0
:101C280018460837BD4680BD0070004080B582B0B8
:101C380000AFFFF76BF87860664B1B68654A43F0A6
:101C48000103136008E0FFF761F802467B68D31AC6
:101C5800022B01D90323B8E05E4B1B6803F0020393
:101C6800002BF0D05B4B1B685A4A43F0800313608B
:101C7800FFF74CF87860574B00229A600AE0FFF7AC
:101C880045F802467B68D31A41F28832934201D95B
:101C980003239AE04F4B9B6803F00C03002BEED113
:101CA800FFF734F878604B4B1B684A4A23F45023FB
:101CB800136008E0FFF72AF802467B68D31A642B02
:101CC80001D9032381E0434B1B6803F40033002B45
:101CD800F0D1FFF71BF878603E4B1B683D4A23F0B4
:101CE8008073136008E0FFF711F802467B68D31A87
:101CF800022B01D9032368E0364B1B6803F00073FD
:101D0800002BF0D1FFF702F87860324B1B68314A9C
:101D180023F08063136008E0FEF7F8FF02467B6853
:101D2800D31A642B01D903234FE02A4B1B6803F015
:101D38000063002BF0D1FEF7E9FF7860254B1B68A4
:101D4800244A23F08053136008E0FEF7DFFF0246C1
:101D58007B68D31A642B01D9032336E01D4B1B681B
:101D680003F00053002BF0D11A4B1B4A5A60194B51
:101D78001A4AC3F88420174B184AC3F88820154B11
:101D8800DB68144A23F4FE43D360124BDB68114A24
:101D980043F47F03D3600F4B5B6F0E4A23F00103BC
:101DA80053670C4B5B6F0B4A43F0807353670C4BC4
:101DB8000C4A1A600C4B1B681846FEF763FF034673
:101DC800002B01D0012300E0002318460837BD4648
:101DD80080BD00BF003802401030002400300024CD
:101DE800400000200024F4004400002080B586B0A4
:101DF80000AF78600023FB757B68002B01D10123BD
:101E08009BE27B681B6803F00103002B00F08780CE
:101E1800964B9B6803F00C03042B0CD0934B9B68E8
:101E280003F00C03082B12D1904B5B6803F480037A
:101E3800B3F5800F0BD18D4B1B6803F40033002BD7
:101E48006CD07B685B68002B68D1012375E27B68E6
:101E58005B68B3F5803F06D1844B1B68834A43F423
:101E6800803313602EE07B685B68002B0CD17F4BBE
:101E78001B687E4A23F4803313607C4B1B687B4AC3
:101E880023F4802313601DE07B685B68B3F5A02F03
:101E98000CD1764B1B68754A43F480231360734B4F
:101EA8001B68724A43F4803313600BE06F4B1B6866
:101EB8006E4A23F4803313606C4B1B686B4A23F41F
:101EC800802313607B685B68002B13D0FEF71EFF2E
:101ED800386108E0FEF71AFF02463B69D31A642B03
:101EE80001D9032329E2614B1B6803F40033002B5B
:101EF800F0D014E0FEF70AFF386108E0FEF706FFAD
:101F080002463B69D31A642B01D9032315E2574BC8
:101F18001B6803F40033002BF0D100E000BF7B689E
:101F28001B6803F00203002B69D0504B9B6803F039
:101F38000C03002B0BD04D4B9B6803F00C03082BB4
:101F48001CD14A4B5B6803F48003002B16D1474B26
:101F58001B6803F00203002B05D07B68DB68012BAC
:101F680001D00123E9E1414B1B6823F0F8027B68AB
:101F78001B69DB003D4913430B6040E07B68DB686D
:101F8800002B23D0394B1B68384A43F001031360F8
:101F9800FEF7BCFE386108E0FEF7B8FE02463B6972
:101FA800D31A022B01D90323C7E1304B1B6803F076
:101FB8000203002BF0D02D4B1B6823F0F8027B683E
:101FC8001B69DB00294913430B6018E0274B1B688A
:101FD800264A23F001031360FEF798FE386108E0F3
:101FE800FEF794FE02463B69D31A022B01D903235C
:101FF800A3E11E4B1B6803F00203002BF0D17B68A2
:102008001B6803F00803002B38D07B685B69002B42
:1020180019D0164B5B6F154A43F001035367FEF75F
:1020280075FE386108E0FEF771FE02463B69D31A77
:10203800022B01D9032380E10C4B5B6F03F00203F1
:10204800002BF0D01AE0094B5B6F084A23F001031C
:102058005367FEF75BFE38610AE0FEF757FE02465B
:102068003B69D31A022B03D9032366E100380240E7
:10207800924B5B6F03F00203002BEED17B681B6869
:1020880003F00403002B00F0A4808C4B1B6C03F0BE
:102098008053002B0DD1894B1B6C884A43F0805329
:1020A8001364864B1B6C03F08053BB60BB68012331
:1020B800FB75834B1B6803F48073002B18D1804B8E
:1020C8001B687F4A43F480731360FEF71FFE386174
:1020D80008E0FEF71BFE02463B69D31A642B01D9C0
:1020E80003232AE1764B1B6803F48073002BF0D09E
:1020F8007B689B68012B06D1704B1B6F6F4A43F0BE
:10210800010313672DE07B689B68002B0CD16B4B98
:102118001B6F6A4A23F001031367684B1B6F674AFA
:1021280023F0040313671CE07B689B68052B0CD124
:10213800624B1B6F614A43F0040313675F4B1B6FCD
:102148005E4A43F0010313670BE05C4B1B6F5B4A6D
:1021580023F001031367594B1B6F584A23F00403FC
:1021680013677B689B68002B15D0FEF7CFFD38619D
:102178000AE0FEF7CBFD02463B69D31A41F28832EA
:10218800934201D90323D8E04C4B1B6F03F00203A1
:10219800002BEED014E0FEF7B9FD38610AE0FEF737
:1021A800B5FD02463B69D31A41F28832934201D900
:1021B8000323C2E0414B1B6F03F00203002BEED157
:1021C800FB7D012B05D13D4B1B6C3C4A23F0805312
:1021D80013647B689B69002B00F0AE80374B9B68CB
:1021E80003F00C03082B6DD07B689B69022B4BD145
:1021F800324B1B68314A23F080731360FEF786FD6B
:10220800386108E0FEF782FD02463B69D31A022BCB
:1022180001D9032391E0294B1B6803F00073002BBD
:10222800F0D17B68DA697B681B6A1A437B685B6A52
:102238009B011A437B689B6A5B08013B1B041A439A
:102248007B68DB6A1B061A437B681B6B1B071B49F1
:1022580013434B60194B1B68184A43F08073136093
:10226800FEF754FD386108E0FEF750FD02463B6971
:10227800D31A022B01D903235FE0104B1B6803F02C
:102288000073002BF0D057E00C4B1B680B4A23F06F
:1022980080731360FEF73AFD386108E0FEF736FDFB
:1022A80002463B69D31A022B01D9032345E0034BAD
:1022B8001B6803F00073002BF0D13DE000380240AA
:1022C800007000401F4B5B68FB607B689B69012BBB
:1022D80030D0FB6803F480027B68DB699A4229D11D
:1022E800FB6803F03F027B681B6A9A4222D1FA68B6
:1022F80047F6C07313407A68526A9201934219D123
:10230800FB6803F440327B689B6A5B08013B1B0453
:102318009A420FD1FB6803F070627B68DB6A1B0688
:102328009A4207D1FB6803F0E0427B681B6B1B07EE
:102338009A4201D0012300E0002318461837BD4611
:1023480080BD00BF0038024080B584B000AF78601F
:1023580039600023FB607B68002B01D10123D0E0AA
:102368006A4B1B6803F00F033A689A4210D9674B0F
:102378001B6823F00F0265493B6813430B60634BEE
:102388001B6803F00F033A689A4201D00123B8E0B2
:102398007B681B6803F00203002B20D07B681B6856
:1023A80003F00403002B05D0594B9B68584A43F4AB
:1023B800E05393607B681B6803F00803002B05D08B
:1023C800534B9B68524A43F460439360504B9B685D
:1023D80023F0F0027B689B684D4913438B607B6850
:1023E8001B6803F00103002B40D07B685B68012B5E
:1023F80007D1474B1B6803F40033002B15D1012389
:102408007FE07B685B68022B07D1414B1B6803F0B8
:102418000073002B09D1012373E03D4B1B6803F0C7
:102428000203002B01D101236BE0394B9B6823F099
:1024380003027B685B68364913438B60FEF766FCD2
:10244800F8600AE0FEF762FC0246FB68D31A41F224
:102458008832934201D9032353E02D4B9B6803F044
:102468000C027B685B689B009A42EBD1274B1B6888
:1024780003F00F033A689A4210D2244B1B6823F0EA
:102488000F0222493B6813430B60204B1B6803F083
:102498000F033A689A4201D0012332E07B681B6837
:1024A80003F00403002B08D0194B9B6823F4E05277
:1024B8007B68DB68164913438B607B681B6803F0F5
:1024C8000803002B09D0124B9B6823F460427B68F9
:1024D8001B69DB000E4913438B6000F021F80246AC
:1024E8000B4B9B681B0903F00F030A49CB5C22FACC
:1024F80003F3094A1360094B1B681846FEF7C2FB31
:10250800002318461037BD4680BD00BF003C02407E
:10251800003802405C5000084000002044000020C1
:102528002DE9B04F90B000AF00237B630023FB631D
:1025380000233B630023BB63594B9B6803F00C03E8
:10254800082B0DD0082B00F2A180002B02D0042B01
:1025580003D09BE0534BBB639BE0534BBB6398E0BA
:102568004F4B5B6803F03F037B634D4B5B6803F4A1
:102578008003002B28D04A4B5B689B0900223B62F2
:102588007A623B6AC3F308000021474B03FB01F260
:10259800002300FB03F31344434AA0FB0212FA6230
:1025A8000A46BA62FA6A1344FB627B6B0022BB617B
:1025B800FA61D7E90623D7E90A01FDF739FE024691
:1025C8000B461346FB6353E0354B5B689B090022BF
:1025D8003B617A613B69C3F3080A4FF0000B52462E
:1025E8005B464FF000004FF00001590141EAD2610B
:1025F800500102460B46B2EB0A0863EB0B094FF099
:1026080000024FF000034FEA891343EA98634FEA48
:102618008812B2EB080463EB09054FF000024FF093
:102628000003EB0043EA5473E20014461D4614EB22
:102638000A033B6045EB0B037B604FF000024FF051
:102648000003D7E9004529468B02214643EA915306
:1026580021468A02104619467B6B0022BB60FA604D
:10266800D7E90223FDF7E4FD02460B461346FB6358
:102678000B4B5B681B0C03F0030301335B003B63EC
:10268800FA6B3B6BB2FBF3F3BB6302E0054BBB6336
:1026980000BFBB6B18464037BD46BDE8B08F00BFD2
:1026A800003802400024F40040787D0180B588B0ED
:1026B80000AF786000237B6100233B610023FB604F
:1026C8000023FB610023BB617B681B6803F00103E7
:1026D800002B12D0694B9B68684A23F4000393606F
:1026E800664B9A687B685B6B644913438B607B68B5
:1026F8005B6B002B01D10123FB617B681B6803F432
:102708000023002B17D05D4BD3F88C3023F44012F4
:102718007B68DB6B59491343C1F88C307B68DB6BF2
:10272800B3F5801F01D10123FB617B68DB6B002BB4
:1027380001D10123BB617B681B6803F48013002B64
:1027480017D04E4BD3F88C3023F440027B681B6CB7
:102758004A491343C1F88C307B681B6CB3F5800F72
:1027680001D10123FB617B681B6C002B01D1012384
:10277800BB617B681B6803F08073002B01D00123C9
:10278800FB617B681B6803F02003002B00F08B8043
:102798003A4B1B6C394A43F080531364374B1B6C1C
:1027A80003F08053BB60BB68354B1B68344A43F465
:1027B80080731360FEF7AAFA786108E0FEF7A6FABC
:1027C80002467B69D31A642B01D9032358E32C4BA7
:1027D8001B6803F48073002BF0D0284B1B6F03F4A5
:1027E80040733B613B69002B35D07B681B6B03F45E
:1027F80040733A699A422ED0204B1B6F23F44073E2
:102808003B611E4B1B6F1D4A43F4803313671B4B00
:102818001B6F1A4A23F480331367184A3B691367FE
:10282800164B1B6F03F00103012B14D1FEF76EFA50
:1028380078610AE0FEF76AFA02467B69D31A41F228
:102848008832934201D903231AE30C4B1B6F03F020
:102858000203002BEED07B681B6B03F44073B3F5C7
:10286800407F11D1054B9B6823F4F8127B68196BE4
:10287800044B0B40014913438B600BE000380240C6
:1028880000700040FFFCFF0FA84B9B68A74A23F489
:10289800F8139360A54B1A6F7B681B6BC3F30B038C
:1028A800A24913430B677B681B6803F01003002BD6
:1028B80010D09E4BD3F88C309C4A23F08073C2F81A
:1028C8008C309A4BD3F88C207B689B6B97491343C9
:1028D800C1F88C307B681B6803F48043002B0AD056
:1028E800924BD3F8903023F440327B685B6E8F496B
:1028F8001343C1F890307B681B6803F40043002B36
:102908000AD08A4BD3F8903023F440227B689B6E20
:1029180086491343C1F890307B681B6803F4803301
:10292800002B0AD0814BD3F8903023F440127B68F7
:10293800DB6E7E491343C1F890307B681B6803F453
:102948000033002B0AD0794BD3F8903023F440029F
:102958007B681B6F75491343C1F890307B681B680F
:1029680003F04003002B0AD0704BD3F8903023F0CB
:1029780003027B685B6C6D491343C1F890307B6838
:102988001B6803F08003002B0AD0684BD3F8903003
:1029980023F00C027B689B6C64491343C1F89030A8
:1029A8007B681B6803F48073002B0AD05F4BD3F855
:1029B800903023F030027B68DB6C5C491343C1F82C
:1029C80090307B681B6803F40073002B0AD0574BC8
:1029D800D3F8903023F0C0027B681B6D5349134332
:1029E800C1F890307B681B6803F48063002B0AD021
:1029F8004E4BD3F8903023F440727B685B6D4B49A3
:102A08001343C1F890307B681B6803F40063002B04
:102A18000AD0464BD3F8903023F440627B689B6D14
:102A280042491343C1F890307B681B6803F4805314
:102A3800002B0AD03D4BD3F8903023F440527B68EA
:102A4800DB6D3A491343C1F890307B681B6803F487
:102A58000053002B0AD0354BD3F8903023F4404272
:102A68007B681B6E31491343C1F890307B681B6843
:102A780003F48003002B0AD02C4BD3F8903023F0BA
:102A880080627B689B6F29491343C1F890307B684B
:102A98001B6803F40013002B11D0244BD3F890309B
:102AA80023F000627B68DB6F20491343C1F8903044
:102AB8007B68DB6FB3F1006F01D10123BB617B68D9
:102AC8001B6803F48023002B0AD0184BD3F89030EE
:102AD80023F040727B685B6F14491343C1F8903050
:102AE8007B681B6803F40003002B0BD00F4BD3F853
:102AF800903023F080527B68D3F880300B49134321
:102B0800C1F890307B681B6803F08063002B0FD0FE
:102B1800064BD3F8903023F000527B68D3F884300A
:102B280002491343C1F8903002E000BF0038024068
:102B38007B681B6803F00063002B0BD08A4BD3F82B
:102B48008C3023F000727B68D3F8883086491343B1
:102B5800C1F88C307B681B6803F08053002B0BD0C6
:102B6800814BD3F88C3023F080627B68D3F88C30AB
:102B78007D491343C1F88C30FB69012B06D07B6873
:102B88001B6803F00073002B00F0D680764B1B689F
:102B9800754A23F080631360FEF7B8F8786108E09F
:102BA800FEF7B4F802467B69D31A642B01D90323D4
:102BB80066E16D4B1B6803F00063002BF0D17B6866
:102BC8001B6803F00103002B21D07B685B6B002B93
:102BD8001DD1654BD3F884301B0C03F003033B6114
:102BE800614BD3F884301B0E03F00F03FB607B6846
:102BF8005B689A013B691B041A43FB681B061A436E
:102C08007B689B681B0758491343C1F884307B686D
:102C18001B6803F40023002B04D07B68DB6BB3F53F
:102C2800801F0AD07B681B6803F48013002B2ED00A
:102C38007B681B6CB3F5800F29D14B4BD3F88430DC
:102C48001B0C03F003033B61474BD3F884301B0F85
:102C580003F00703FB607B685B689A013B691B0410
:102C68001A437B68DB681B061A43FB681B073E494F
:102C78001343C1F884303C4BD3F88C3023F01F0247
:102C88007B685B6A013B38491343C1F88C307B6829
:102C98001B6803F08073002B1DD0334BD3F88430AE
:102CA8001B0E03F00F033B612F4BD3F884301B0F2F
:102CB80003F00703FB607B685B689A017B681B690C
:102CC8001B041A433B691B061A43FB681B0726496A
:102CD8001343C1F884307B681B6803F00073002B32
:102CE80011D07B685B689A017B681B691B041A43D7
:102CF8007B68DB681B061A437B689B681B071A49BD
:102D08001343C1F88430184B1B68174A43F080639B
:102D18001360FDF7FBFF786108E0FDF7F7FF024657
:102D28007B69D31A642B01D90323A9E00E4B1B68D6
:102D380003F00063002BF0D0BB69012B40F09F80AB
:102D4800094B1B68084A23F080531360FDF7DEFF28
:102D580078610BE0FDF7DAFF02467B69D31A642B32
:102D680004D903238CE000BF00380240464B1B689F
:102D780003F00053B3F1005FECD07B681B6803F4E9
:102D88000023002B03D07B68DB6B002B09D07B680A
:102D98001B6803F48013002B2ED07B681B6C002B60
:102DA8002AD1394BD3F888301B0C03F003033B615D
:102DB800354BD3F888301B0F03F00703FB607B68A3
:102DC8005B699A013B691B041A437B689B691B0674
:102DD8001A43FB681B072C491343C1F888302A4B58
:102DE800D3F88C3023F4F8527B689B6A013B1B02B2
:102DF80025491343C1F88C307B681B6803F4001322
:102E0800002B22D07B68DB6FB3F1006F1DD11E4B06
:102E1800D3F888301B0E03F00F033B611A4BD3F82D
:102E280088301B0F03F00703FB607B685B699A011E
:102E38007B681B6A1B041A433B691B061A43FB6821
:102E48001B0711491343C1F888300F4B1B680E4A02
:102E580043F080531360FDF759FF786108E0FDF7F0
:102E680055FF02467B69D31A642B01D9032307E077
:102E7800054B1B6803F00053B3F1005FEFD100234B
:102E880018462037BD4680BD0038024080B489B05E
:102E980000AFF860B9607A60FB681A68BB687B614C
:102EA8007B6993FAA3F33B613B69B3FA83F3DBB223
:102EB8005B00032101FA03F3DB431A40BB68FB61A3
:102EC800FB6993FAA3F3BB61BB69B3FA83F3DBB283
:102ED8005B00796801FA03F31A43FB681A6000BFC4
:102EE8002437BD465DF8047B704780B485B000AFD9
:102EF800F860B9607A60FB685A68BB68DB431A40BF
:102F0800BB68796801FB03F31A43FB685A6000BF8A
:102F18001437BD465DF8047B704780B489B000AFB4
:102F2800F860B9607A60FB689A68BB687B617B6906
:102F380093FAA3F33B613B69B3FA83F3DBB25B001B
:102F4800032101FA03F3DB431A40BB68FB61FB6909
:102F580093FAA3F3BB61BB69B3FA83F3DBB25B00FB
:102F6800796801FA03F31A43FB689A6000BF2437B3
:102F7800BD465DF8047B704780B489B000AFF86047
:102F8800B9607A60FB68DA68BB687B617B6993FA31
:102F9800A3F33B613B69B3FA83F3DBB25B00032124
:102FA80001FA03F3DB431A40BB68FB61FB6993FA40
:102FB800A3F3BB61BB69B3FA83F3DBB25B00796847
:102FC80001FA03F31A43FB68DA6000BF2437BD46F1
:102FD8005DF8047B704780B489B000AFF860B960D1
:102FE8007A60FB681A6ABB687B617B6993FAA3F312
:102FF8003B613B69B3FA83F3DBB29B000F2101FA13
:1030080003F3DB431A40BB68FB61FB6993FAA3F344
:10301800BB61BB69B3FA83F3DBB29B00796801FA41
:1030280003F31A43FB681A6200BF2437BD465DF8F4
:10303800047B704780B489B000AFF860B9607A60EB
:10304800FB685A6ABB681B0A7B617B6993FAA3F326
:103058003B613B69B3FA83F3DBB29B000F2101FAB2
:1030680003F3DB431A40BB681B0AFB61FB6993FA55
:10307800A3F3BB61BB69B3FA83F3DBB29B00796846
:1030880001FA03F31A43FB685A6200BF2437BD46AE
:103098005DF8047B704780B588B000AF7860396010
:1030A8000023FB610023BB613B681B687B617B6974
:1030B80093FAA3F33B613B69B3FA83F3DBB2FB6199
:1030C80051E03B681A680121FB6901FA03F31340D8
:1030D800BB61BB69002B43D03B685B68012B03D005
:1030E8003B685B68022B0ED13B689B681A46B9693E
:1030F8007868FFF712FF3B6819683B68DB681A4677
:103108007868FFF7F2FE3B681B691A46B969786868
:10311800FFF732FF3B685B68022B1AD1BB69FB6083
:10312800FB6893FAA3F3BB60BB68B3FA83F3DBB223
:10313800072B07D83B685B691A46B9697868FFF7B7
:103148004AFF06E03B685B691A46B9697868FFF789
:1031580071FF3B685B681A46B9697868FFF796FEA5
:10316800FB690133FB613B681A68FB6922FA03F3C8
:10317800002BA6D1002318462037BD4680BD00008D
:1031880080B400AF064B1B6803F00203022B0CBF90
:1031980001230023DBB21846BD465DF8047B704767
:1031A8000038024080B400AF064B1B6F03F00203E7
:1031B800022B0CBF01230023DBB21846BD465DF885
:1031C800047B70470038024080B400AF044B9B6812
:1031D80003F00C031846BD465DF8047B704700BF3A
:1031E8000038024080B400AF044B9B6803F0F00342
:1031F8001846BD465DF8047B704700BF00380240A2
:1032080080B400AF044B9B6803F4E0531846BD46F6
:103218005DF8047B704700BF0038024080B400AFFF
:10322800044B9B6803F460431846BD465DF8047B75
:10323800704700BF0038024080B483B000AF7860A8
:10324800064BD3F890207B681A407B681B04134315
:1032580018460C37BD465DF8047B704700380240BD
:1032680080B483B000AF7860064BD3F890207B68B9
:103278001A407B681B04134318460C37BD465DF89B
:10328800047B70470038024080B400AF044B5B6891
:1032980003F480031846BD465DF8047B704700BF01
:1032A8000038024080B400AF044B5B689B09C3F34D
:1032B80008031846BD465DF8047B70470038024095
:1032C80080B400AF044B5B6803F440331846BD4636
:1032D8005DF8047B704700BF0038024080B400AF3F
:1032E800044B5B6803F03F031846BD465DF8047B5A
:1032F800704700BF0038024080B584B000AF7860E6
:103308000023FB607B68032B33D17868FFF794FFB9
:103318000346B3F1031F16D0B3F1031F1DD8704A3B
:10332800934203D06F4A934204D016E000F0F2F9BA
:10333800F860CFE0FFF724FF0346002B00F0BB80C6
:10334800694BFB60B7E0FFF72DFF0346002B00F049
:10335800B4804FF40043FB60AFE000F0DBF90346B4
:10336800184600F0FFF90346184600F025FAF86001
:10337800B0E07B680C2B33D17868FFF75DFF03461C
:10338800B3F10C1F16D0B3F10C1F1DD8574A934246
:1033980003D0574A934204D016E000F0BBF9F86016
:1033A80098E0FFF7EDFE0346002B00F088804E4BB7
:1033B800FB6084E0FFF7F6FE0346002B00F08180F7
:1033C8004FF40043FB607CE000F0A4F90346184684
:1033D80000F0C8F90346184600F0DAF9F86079E019
:1033E8007B68B3F5406F31D17868FFF725FF034656
:1033F800B3F10C2F15D0B3F10C2F1BD83D4A9342D3
:1034080003D03D4A934204D014E000F083F9F860F9
:1034180060E0FFF7B5FE0346002B54D0324BFB604B
:1034280051E0FFF7BFFE0346002B4ED04FF4004398
:10343800FB604AE000F06EF90346184600F092F986
:103448000346184600F0B8F9F86043E07B68302B73
:1034580040D17868FFF7F0FE0346B3F1301F15D06E
:10346800B3F1301F1BD8254A934203D0244A934214
:1034780004D014E000F04EF9F8602BE0FFF780FE6E
:103488000346002B23D0184BFB6020E0FFF78AFE91
:103498000346002B1DD04FF40043FB6019E000F0F9
:1034A80039F90346184600F05DF90346184600F05E
:1034B8006FF9F8600EE000BF0CE000BF0AE000BF43
:1034C80008E000BF06E000BF04E000BF02E000BF64
:1034D80000E000BFFB6818461037BD4680BD00BF3E
:1034E80001000300020003000024F40004000C00A3
:1034F80008000C000004000C0008000C100030004C
:103508002000300080B584B000AF78600023FB60F5
:103518007B68C02B33D17868FFF7A2FE0346B3F16E
:10352800C01F16D0B3F1C01F1DD8714A934203D0F3
:10353800704A934204D016E000F0ECF8F860D1E04D
:10354800FFF71EFE0346002B00F0BD806A4BFB60B0
:10355800B9E0FFF727FE0346002B00F0B6804FF4D2
:103568000043FB60B1E000F0D5F80346184600F0D0
:10357800F9F80346184600F00BF9F860B2E07B68EA
:10358800B3F5407F33D17868FFF76AFE0346B3F19D
:10359800032F16D0B3F1032F1DD8584A934203D0F6
:1035A800574A934204D016E000F0B4F8F86099E066
:1035B800FFF7E6FD0346002B00F089804E4BFB60C9
:1035C80085E0FFF7EFFD0346002B00F082804FF403
:1035D8000043FB607DE000F09DF80346184600F0CC
:1035E800C1F80346184600F0D3F8F8607AE07B6823
:1035F800B3F5405F31D17868FFF732FE0346B3F187
:10360800302F15D0B3F1302F1BD83E4A934203D048
:103618003D4A934204D014E000F07CF8F86061E081
:10362800FFF7AEFD0346002B55D0334BFB6052E04D
:10363800FFF7B8FD0346002B4FD04FF40043FB6063
:103648004BE000F067F80346184600F08BF8034695
:10365800184600F09DF8F86044E07B68B3F5404FE9
:1036680040D17868FFF7FCFD0346B3F1C02F15D0B1
:10367800B3F1C02F1BD8254A934203D0244A934262
:1036880004D014E000F046F8F8602BE0FFF778FD6E
:103698000346002B23D0184BFB6020E0FFF782FD88
:1036A8000346002B1DD04FF40043FB6019E000F0E7
:1036B80031F80346184600F055F80346184600F05E
:1036C80067F8F8600EE000BF0CE000BF0AE000BF3A
:1036D80008E000BF06E000BF04E000BF02E000BF52
:1036E80000E000BFFB6818461037BD4680BD00BF2C
:1036F8004000C0008000C0000024F4000001000366
:10370800000200030010003000200030004000C01C
:10371800008000C080B582B000AF00237B60FFF757
:1037280053FD0346082B0CD0082B0ED8002B02D0D3
:10373800042B03D009E0094B7B6009E0084B7B6050
:1037480006E000F04DF8786002E0044B7B6000BFB3
:103758007B6818460837BD4680BD00BF0024F400CA
:1037680040787D0180B582B000AF7860FFF73AFD00
:1037780003461B0903F00F03044AD35C1A467B680F
:10378800D34018460837BD4680BD00BF5C500008CE
:1037980080B582B000AF7860FFF732FD03469B0A20
:1037A800044AD35C1A467B68D34018460837BD469E
:1037B80080BD00BF6C50000880B582B000AF786053
:1037C800FFF72CFD03465B0B044AD35C1A467B6863
:1037D800D34018460837BD4680BD00BF6C5000086E
:1037E80090B583B000AF00237B6000233B60FFF7F8
:1037F8004BFD38603B68002B04D03B68B3F5800F65
:1038080003D005E00F4B7B6005E00F4B7B6002E0C7
:103818000C4B7B6000BFFFF761FD02467B68B3FB82
:10382800F2F4FFF73FFD034603FB04F4FFF748FDFE
:1038380003461B0C01335B00B4FBF3F318460C374B
:10384800BD4690BD0024F40040787D0180B483B06B
:1038580000AF78607B681B6803F00103012B01D17E
:10386800012300E0002318460C37BD465DF8047BB1
:10387800704780B483B000AF786039607B685B685C
:1038880023F440523B681A437B685A6000BF0C37E8
:10389800BD465DF8047B704780B483B000AF7860A4
:1038A80039607B689B6823F440723B681A437B68E5
:1038B8009A6000BF0C37BD465DF8047B704780B442
:1038C80087B000AFF860B9607A603B607B68B3F599
:1038D800004F1AD1BB685A003B685B081A443B6822
:1038E800B2FBF3F39BB27B617A694FF6F073134036
:1038F8003B617B695B089BB203F007033A6913439A
:103908003B61FB683A69DA600AE03B685A08BB68C1
:103918001A443B68B2FBF3F39BB21A46FB68DA60C1
:1039280000BF1C37BD465DF8047B704780B584B086
:1039380000AF786039600123FB730023BB607868AF
:10394800FFF784FF0346002B79D17B681A683E4B4A
:1039580013403A6851683A68D26811433A68126964
:1039680011433A6892690A431A437B681A603B68B4
:103978009B6819467868FFF77CFF3B685B691946C6
:103988007868FFF789FF7B68304A934204D10320A7
:10399800FFF7B2FCB86041E07B682D4A934204D13E
:1039A8000C20FFF7A9FCB86038E07B68294A9342ED
:1039B80004D13020FFF7A0FCB8602FE07B68264ACE
:1039C800934204D1C020FFF79DFDB86026E07B68D4
:1039D800224A934205D14FF44070FFF793FDB86037
:1039E8001CE07B681E4A934205D14FF44060FFF704
:1039F80083FCB86012E07B681A4A934205D14FF401
:103A08004050FFF77FFDB86008E07B68164A934294
:103A180004D14FF44040FFF775FDB860BB68002B38
:103A28000DD03B681B68002B09D00023FB733B6853
:103A38009A693B681B68B9687868FFF740FFFB7BA9
:103A480018461037BD4680BDF369FFEF00100140EE
:103A58000044004000480040004C00400050004036
:103A68000014014000780040007C004080B483B01E
:103A780000AF786072B600BF7B680022A3F800210F
:103A88007B680022A3F802217B680022A3F80421A6
:103A980062B600BF00BF0C37BD465DF8047B7047B7
:103AA80080B483B000AF78607B68B3F804319BB210
:103AB800B3F5807F0CBF01230023DBB218460C3717
:103AC800BD465DF8047B704780B483B000AF786072
:103AD8007B68B3F804319BB2002B0CBF0123002391
:103AE800DBB218460C37BD465DF8047B704780B4DE
:103AF80083B000AF03463960FB713B683A68B2F89F
:103B0800002192B21344FA791A7072B600BF3B686A
:103B1800B3F800319BB201339BB2DBB29AB23B6877
:103B2800A3F800213B68B3F804319BB201339AB281
:103B38003B68A3F8042162B600BF00BF0C37BD463E
:103B48005DF8047B704780B485B000AF78607B680F
:103B58007A68B2F8022192B213441B78FB7372B6EA
:103B680000BF7B68B3F802319BB201339BB2DBB272
:103B78009AB27B68A3F802217B68B3F804319BB240
:103B8800013B9AB27B68A3F8042162B600BFFB7BB5
:103B980018461437BD465DF8047B704780B483B07F
:103BA80000AF78607B68DB6903F00203022B01D168
:103BB800012300E0002318460C37BD465DF8047B5E
:103BC800704780B483B000AF78607B68DB6903F02E
:103BD8000403042B01D1012300E0002318460C370D
:103BE800BD465DF8047B704780B483B000AF786051
:103BF8007B68DB6903F00803082B01D1012300E08F
:103C0800002318460C37BD465DF8047B704780B426
:103C180083B000AF78607B68DB6903F02003202B5A
:103C280001D1012300E0002318460C37BD465DF89A
:103C3800047B704780B483B000AF78607B68DB6931
:103C480003F08003802B01D1012300E000231846F4
:103C58000C37BD465DF8047B704780B483B000AF75
:103C680078607B6802221A6200BF0C37BD465DF897
:103C7800047B704780B483B000AF78607B6804220F
:103C88001A6200BF0C37BD465DF8047B704780B4EC
:103C980083B000AF78607B6808221A6200BF0C37D7
:103CA800BD465DF8047B704780B489B000AF78608A
:103CB8007B68FB60FB6853E8003FBB60BB6843F070
:103CC8002003FB617B68FA69BA617B617969BA692B
:103CD80041E800233B613B69002BE9D100BF00BFED
:103CE8002437BD465DF8047B704780B489B000AFC7
:103CF80078607B68FB60FB6853E8003FBB60BB688B
:103D080043F08003FB617B68FA69BA617B6179697A
:103D1800BA6941E800233B613B69002BE9D100BF48
:103D280000BF2437BD465DF8047B704780B489B076
:103D380000AF78607B68FB60FB6853E8003FBB60BE
:103D4800BB6823F08003FB617B68FA69BA617B6119
:103D58007969BA6941E800233B613B69002BE9D1E5
:103D680000BF00BF2437BD465DF8047B704780B4B0
:103D780083B000AF78607B681B6803F02003202BBA
:103D880001D1012300E0002318460C37BD465DF839
:103D9800047B704780B483B000AF78607B685B6A4F
:103DA800DBB218460C37BD465DF8047B704780B41B
:103DB80083B000AF78600B46FB70FA787B689A6234
:103DC80000BF0C37BD465DF8047B704780B582B0F4
:103DD80000AF3448FFF72EFF0346002B1ED0324BAE
:103DE8001B6803F583731846FFF76EFE034683F0DE
:103DF8000103DBB2002B0ED02B4B1B6803F583733A
:103E08001846FFF7A0FE0346FB71FB7919462548C3
:103E1800FFF7CDFF02E02348FFF788FF2148FFF7AF
:103E2800F6FE0346002B3AD01E48FFF7A0FF0346D4
:103E3800002B34D01B48FFF7ADFF0346BB71194870
:103E4800FFF7D2FE0346002B0BD11648FFF7A6FE5C
:103E58000346002B05D11348FFF7B3FE0346002B9A
:103E680009D01048FFF713FF0E48FFF7F6FE0D487C
:103E7800FFF700FF12E00C4B1B681846FFF710FE17
:103E8800034683F00103DBB2002B07D0064B1B6807
:103E98001A46BB7911461846FFF729FE00BF0837B6
:103EA800BD4680BD007800404C00002080B500AFC2
:103EB800084B1B6803F583731846FFF7D7FD054BBE
:103EC8001B681846FFF7D2FD0348FFF7EDFE00BF59
:103ED80080BD00BF4C0000200078004080B582B053
:103EE80000AF0346FB7100BF0C4B1B6803F58373DF
:103EF8001846FFF7D5FD0346002BF5D1074B1B6885
:103F080003F58372FB7911461846FFF7F0FD044864
:103F1800FFF7EBFE00BF0837BD4680BD4C00002010
:103F28000078004080B584B000AF78600B46FB7025
:103F38000023FB7309E07B685A1C7A601B781846DB
:103F4800FFF7CCFFFB7B0133FB73FA7BFB789A42CC
:103F5800F1D300BF00BF1037BD4680BD80B400AFAD
:103F6800BFF34F8F00BFBFF36F8F00BF0A4B5B6972
:103F7800094A23F400335361074B0022C3F8502247
:103F8800BFF34F8F00BFBFF36F8F00BF00BFBD46A9
:103F98005DF8047B704700BF00ED00E080B400AF1F
:103FA800BFF34F8F00BFBFF36F8F00BF074B0022D7
:103FB800C3F85022BFF34F8F00BFBFF36F8F00BF0E
:103FC80000BFBD465DF8047B704700BF00ED00E010
:103FD80080B485B000AF1F4B0022C3F88420BFF324
:103FE8004F8F00BF1B4B5B691A4A23F48033536120
:103FF800BFF34F8F00BF174BD3F880307B607B68CF
:104008005B0BC3F30E03FB607B68DB08C3F3090398
:10401800BB60FB685A0143F6E0731340BA68920725
:104028000C491343C1F87432BB685A1EBA60002B9E
:10403800EFD1FB685A1EFA60002BE5D1BFF34F8F12
:1040480000BFBFF36F8F00BF00BF1437BD465DF8D8
:10405800047B704700ED00E080B485B000AF1B4BD7
:104068000022C3F88420BFF34F8F00BF174BD3F84B
:1040780080307B607B685B0BC3F30E03FB607B685F
:10408800DB08C3F30903BB60FB685A0143F6E0731E
:104098001340BA6892070D491343C1F87432BB68DC
:1040A8005A1EBA60002BEFD1FB685A1EFA60002B2B
:1040B800E5D1BFF34F8F00BFBFF36F8F00BF00BFC5
:1040C8001437BD465DF8047B704700BF00ED00E083
:1040D80080B483B000AF7860054B1A6A04497B68E6
:1040E80013430B6200BF0C37BD465DF8047B704775
:1040F8000038024080B483B000AF7860064B1A6A7B
:104108007B68DB43044913400B6200BF0C37BD4694
:104118005DF8047B704700BF0038024080B584B06A
:1041280000AF7860604B1B78002B00F0AD805F4BD0
:104138001B885A1C91B25D4A1180B3F5FA7F40F290
:10414800A380594B00221A70594B00221A70594B00
:1041580000221A70554B00221A8095E0564B1B68B6
:104168001846FFF7F0FC0346FB734F4B1B7883F0B0
:104178000103DBB2002B1FD04C4B00221A804C4AA3
:10418800FB7B13704A4B1B78002B0ED0484B1B78D7
:10419800FF2B0AD0464B1A78484B1A70454B012220
:1041A8001A70414B01221A706EE0424B00221A70BD
:1041B8003D4B00221A7067E03E4B1B785A1CD1B267
:1041C8003C4A117019463D4AFB7B5354384B1A78C8
:1041D800384B1B789A4257D2334B00221A70344B13
:1041E80000221A700023BB810023BB60334B1B786D
:1041F8000133BB81BB89043B304A13441B68BB6055
:10420800BB89043BBA6819462C4800F0F5FA034606
:10421800002B02D000F028FB42E0294B47F2305235
:104228001A60264B5B78103B072B2CD801A252F85A
:1042380023F000BF5D4200088F4200086542000875
:104248006B420008734200088B4200088342000852
:104258007B420008194800F05FF815E000F010F9FB
:1042680012E0164800F078F90EE0144800F014FA4D
:104278000AE0124800F052FB06E0104800F08CFB00
:1042880002E000F01FF800BF0B4B1B681846FFF751
:104298001BFC034683F00103DBB2002B7FF45EAF07
:1042A8001037BD4680BD00BF740300207603002090
:1042B80073030020720300204C000020DC02002061
:1042C800D802002080B582B000AF084A3B1D1268B2
:1042D800114619800233120C1A703B1D032118462F
:1042E80000F0D0FA00BF0837BD4680BD585000081E
:1042F80080B582B000AF7860064B1B68002B05D1F3
:10430800044B47F230521A6000F042FC00BF0837F5
:10431800BD4680BDD802002080B584B000AF78606B
:104328000023FB81084B1B689BB2C3F30B039BB2B2
:10433800FB8107F10E030221184600F0A3FA00BF23
:104348001037BD4680BD00BF002004E080B588B0AE
:1043580000AF78607B681B68B3F1FF3F00F0838093
:104368000023FB7307F10F030121184600F08AFAB6
:104378000120FCF7D7FC00BF3D4B1B6803F5837396
:104388001846FFF7A1FB034683F00103DBB2002BBD
:10439800F2D172B600BF0023FB7710E0354AFB7FED
:1043A80020334FF0FF3142F82310324AFB7F60334D
:1043B8004FF0FF3142F82310FB7F0133FB77FB7F7F
:1043C800072BEBD94FF08040FFF782FE4FF080407B
:1043D800FFF790FE284B5B6903F48033002B03D072
:1043E800FFF73AFEFFF7F4FD234B5B6903F4003354
:1043F800002B03D0FFF7D2FDFFF7B0FDFDF716FC49
:10440800FCF70CFC1C4B5B681B4A43F020635360B1
:10441800BFF34F8F00BFBFF36F8F00BF7B681B6870
:104428003B613B6983F3088800BF134A7B6893604C
:10443800124B00221A60114B00225A600F4B0022C7
:104448009A60BFF34F8F00BFBFF36F8F00BF7B68C9
:1044580004331B68BB61BB697B6162B600BF7B69C3
:104468009847002300E0012318462037BD4680BD49
:104478004C00002000E100E000ED00E010E000E06A
:1044880080B582B000AF00F083FB0346FB71FB7977
:10449800002B04D0FB1D0121184600F0F3F900BFE2
:1044A8000837BD4680BD80B588B000AF03460A46D0
:1044B800FB711346BB7107F10C0300221A605A60A6
:1044C8009A60DA601A610023BB60BB79082B01D9B6
:1044D80001233DE0FB79FF2B04D0FB79072B01D9A1
:1044E800012335E0FCF7ECFEFB79FF2B16D1012305
:1044F800FB600223FB6107F1080207F10C03114678
:104508001846FDF73FF80346002B03D0FCF7FAFEE8
:1045180001231DE0FCF7F6FE002319E0FB797B611F
:104528000023FB600223FB61BB79BB6107F1080232
:1045380007F10C0311461846FDF724F80346002B33
:1045480003D0FCF7DFFE012302E0FCF7DBFE0023CB
:1045580018462037BD4680BD80B588B000AF78606A
:104568000023FB770023FB6000233B6100237B6172
:1045780000233B7600237B760023BB767B680233DF
:104588001B78012B25D102210420FFF78CFF03465D
:10459800FB7701210620FFF786FF03461A46FB7FBB
:1045A8001344DBB2FB7701210720FFF77CFF0346AA
:1045B8001A46FB7F1344DBB2FB7707F10C0318465E
:1045C80000F046FA03461A46FB7F1344DBB2FB773A
:1045D80002E00123FB7700BF07F11F030121184602
:1045E80000F050F900BF2037BD4680BDB0B586B099
:1045F80000AFF860B9601346FB80FA88BB681344C3
:10460800B3F1016F01D3012342E0FB68002B02D014
:10461800FB88002B01D101233AE0FCF751FE00236F
:10462800FB822EE007F110030422FF21184600F058
:1046380055FCFA88FB8AD31A042BA8BF0423BB8233
:10464800FB8AFA68D118BA8A07F11003184600F0F5
:1046580071FCFA8ABB68D11807F110031B680022A5
:104668001C46154622462B460220FCF7CFFD034682
:10467800002B03D0FCF746FE012309E0FB8A043334
:10468800FB82FA8AFB889A42CCD3FCF73BFE0023D4
:1046980018461837BD46B0BD80B584B000AF786005
:1046A8000023FB7300233B720023BB8100237B8123
:1046B8007B689B88BB817B68DB887B817B689B7878
:1046C8007B727B7A012B08D001233B7207F1080328
:1046D8000121184600F0D6F884E0BB89002B1BD1D5
:1046E800424B434A1A60434800F01CFA03463B72A7
:1046F8003B7A002B06D007F108030121184600F089
:10470800C1F86FE0394B1B683A4A1360394B0022F5
:104718009A60384B00225A607B68DB78FB737B68B1
:104728000833324A1168FA7B92B21846FFF75EFFE7
:1047380003463B727B6803F108002C4B1B6803F5AA
:10474800C023FA7B92B21946FFF750FF03461A4678
:104758003B7A1344DBB23B727B6803F10800234BBE
:104768001B6803F52023FA7B92B21946FFF73EFF38
:1047780003461A463B7A1344DBB23B723B7A002B62
:104788002AD1FA7B194B1B681344184A1360194B3A
:104798005A68FB7B1344174A5360BA897B89013BEB
:1047A8009A4219D1134B1B68124A5268114618468F
:1047B80000F078F803460F4A93600E4800F048F975
:1047C80003463B723B7A002B06D007F10803012110
:1047D800184600F057F805E007F1080301211846CC
:1047E80000F050F81037BD4680BD00BFD40200204D
:1047F80000000208C402002080B489B000AFF8604D
:10480800B9607A600023FB7700237B61BB68B3F152
:10481800FF3F02D17B69DBB21DE0124B01229A6097
:104828000023BB6108E0FA68BB6913441A780D4B92
:104838001A60BB690133BB61BA69BB689A42F2D39B
:10484800084B1B687A689A4202D10023FB7701E083
:104858000123FB77FB7F18462437BD465DF8047BB0
:10486800704700BF0030024080B582B000AFAB2374
:10487800FB71FB1D01211846FFF754FB00BF0837E9
:10488800BD4680BD80B582B000AF786039603B68B6
:10489800DBB219467868FFF745FB00BF0837BD460D
:1048A80080BD000080B487B000AF786039603B6895
:1048B800002B01D1002329E07B687B617A683B6883
:1048C80013443B610023FB60134B01229A6008E00C
:1048D8007B691B68FB60104AFB6813607B690433C3
:1048E8007B613B69033B7A699A42F1D308E07B69B3
:1048F8001B78FB72084AFB7A13607B6901337B6182
:104908007A693B699A42F2D3034B1B6818461C37F5
:10491800BD465DF8047B70470030024080B588B022
:1049280000AF78600023FB777B6802331B78012B8C
:1049380008D00123FB7707F11F0301211846FFF771
:10494800A1FF26E007F10C03184600F0EBF8034638
:10495800FB77FB7F002B06D007F11F0301211846C8
:10496800FFF790FF15E07B68DB783B767B681B7967
:104978007B767B685B79BB7607F10C03184600F001
:1049880067F80346FB7707F11F0301211846FFF775
:1049980079FF2037BD4680BD80B588B000AF78600C
:1049A80007F1180306220021184600F097FA7B68E1
:1049B80002331B78012B08D001233B7607F118033B
:1049C80006211846FFF75EFF3CE007F1080318468A
:1049D80000F0A8F80346002B08D001233B7607F126
:1049E800180306211846FFF74DFF2BE0FB6807EE7A
:1049F800903AB8EE677ADFED156AC7EE267AB7EE19
:104A0800E77AB0EE470B00F0A3FAB0EE407BFCEE7D
:104A1800C77B17EE903AFB8300233B763B7D7B7682
:104A28007B7DBB76BB7DFB76FB8B1B0A9BB2DBB227
:104A38003B77FB8BDBB27B7707F11803062118461F
:104A4800FFF720FF2037BD4680BD00BF000080442F
:104A5800B0B59CB000AF78607B68002B01D1012312
:104A68005AE02F4BBB6610237B6607F120034022D8
:104A7800FF21184600F032FA07F120037A6E7968B0
:104A8800184600F057FAFCF71BFC07F10C0300224C
:104A98001A605A609A60DA601A610023BB600023CA
:104AA800FB6003237B610123BB610223FB6107F1E8
:104AB800080207F10C0311461846FCF763FD03468C
:104AC800002B03D0FCF71EFC012325E00023FB6626
:104AD8001BE007F12002FB6E13441B683B66BA6EAD
:104AE800FB6ED1183B6E00221C46154622462B460B
:104AF8000220FCF78BFB0346002B03D0FCF702FCDB
:104B0800012309E0FB6E0433FB66FA6E7B6E9A4262
:104B1800DFD3FCF7F7FB002318467037BD46B0BD5E
:104B280000800108B0B58CB000AF7860174BFB620D
:104B38001023BB62FB6A07F108041D4628686968F0
:104B4800AA68EB680FC428696969AA69EB690FC488
:104B580007F10803BA6A1946786800F0EBF97B6830
:104B68001B68B3F1FF3F09D07B685B68B3F1FF3F77
:104B780004D07B689B68B3F1FF3F01D1012300E0BB
:104B8800002318463037BD46B0BD00BF008001087D
:104B980080B586B000AF00237B613B461846FFF71F
:104BA800C1FF0346012B01D101233DE03B68204AA8
:104BB800934201D0012337E07B68002B33D03B6858
:104BC8007A6811461846FFF76DFE7861BB687A6906
:104BD8009A421AD07B681A461549164800F02EF8F2
:104BE8000346002B0AD07B681A461149124800F088
:104BF80025F80346002B01D0012315E03B687A68AD
:104C080011461846FFF74EFE7861BB687A699A42EA
:104C180009D1074B3B613869FFF798FB0346002B26
:104C280001D0012300E0012318461837BD4680BD96
:104C3800000002080000080800000C08B0B588B0A1
:104C480000AFF860B9607A607B68002B01D101235E
:104C580044E002210420FFF726FC0346012B01D182
:104C680001233BE0FCF72CFB0023FB612FE007F15D
:104C780014030422FF21184600F030F97A68FB6912
:104C8800D31A042B28BF04237B83FA68FB691344D7
:104C980019467A8B07F11403184600F04BF9BA68E5
:104CA800FB69D11807F114031B6800221C4615463E
:104CB80022462B460220FCF7A9FA0346002B03D014
:104CC800FCF720FB012309E0FB690433FB61FA6967
:104CD8007B689A42CBD3FCF715FB00231846203794
:104CE800BD46B0BD80B500AF00F02EF8134B1B6871
:104CF800134A93420DD00C220021104800F0EEF820
:104D08000E4B0F4A1A600D4B00225A600B4BFF22C4
:104D18009A600A4B5B68012B04D10A4B47F2305268
:104D28001A6007E0054B5B68002B03D1054B41F285
:104D380088321A6000F02CF800BF80BD00400240A5
:104D4800ADDEADDED802002080B582B000AFFCF742
:104D5800F5FE0D4B1B6B0C4A43F4802313630A4B7F
:104D68001B6B03F480237B607B68FCF707FF00BFA5
:104D7800064B5B6803F00803082BF9D100BF00BF9E
:104D88000837BD4680BD00BF0038024000700040B3
:104D980080B500AFFCF71EFF044B1B6B034A23F4DE
:104DA80080231363FCF7DAFE00BF80BD00380240A1
:104DB80080B400AF094B1B680133084A1360084BE5
:104DC8001B68002B04D0064B1B68013B044A136088
:104DD80000BFBD465DF8047B704700BF7803002024
:104DE800D802002080B483B000AF78600B4B1A68FB
:104DF8007B68B2FBF3F30A4A013B5360084B00227D
:104E08009A60074B07221A60064A7B68136000BF46
:104E18000C37BD465DF8047B704700BF400000209A
:104E280010E000E05000002080B582B000AF002301
:104E38007B6022E07A6813469B0013449B00144A67
:104E480013443B603B681B7C002B13D03B68DB683A
:104E5800184600F023F802463B689B689A4209D33B
:104E68000C4B1A683B68DA603B681B683A68526802
:104E7800104698477B6801337B60074B1B687A684C
:104E88009A42D7D300BF00BF0837BD4680BD00BFD8
:104E980004000020780300200000002080B582B0C4
:104EA80000AF7860054B1B681946786800F008F871
:104EB800034618460837BD4680BD00BF780300206A
:104EC80080B483B000AF786039603A687B68D31AE1
:104ED80018460C37BD465DF8047B7047024403460C
:104EE800934200D1704703F8011BF9E770B50D4DE7
:104EF8000D4C641BA4100026A64209D10B4D0C4C86
:104F080000F09AF8641BA4100026A64205D170BDD3
:104F180055F8043B98470136EEE755F8043B9847A7
:104F28000136F2E77C5000087C5000087C500008ED
:104F3800805000080A44914200F1FF3300D17047C5
:104F480010B511F8014B03F8014F9142F9D110BD8A
:104F580010EE901AC1F30A5210EE100AA2F2FF33B3
:104F6800132B30B505462EDC002B12DA9FED2E7B75
:104F780030EE070BB5EEC00BF1EE10FA04DD002998
:104F88004BDB08434DD101460B46024643EC102B40
:104F980020E0274A1A4101EA020404431AD09FED8F
:104FA800227B30EE070BB5EEC00BF1EE10FAEBDD0D
:104FB8000029C2BF4FF4801040FA03F3C91821EA50
:104FC80002010020E0E7332B05DDB3F5806F01D146
:104FD80030EE000B30BDA2F213444FF0FF32E24036
:104FE8001042F7D09FED107B30EE070BB5EEC00BEB
:104FF800F1EE10FAC8DD002902DD142B03D10131CE
:1050080020EA0200C0E70124C3F1340304FA03F3E1
:105018001844854288BF0919F2E700204FF0004183
:10502800B2E704490020AFE79C7500883CE4377E6E
:10503800FFFF0F000000F03FF8B500BFF8BC08BC48
:105048009E467047F8B500BFF8BC08BC9E4670473E
:10505800004F4B00000000000000000001020304A4
:0C50680006070809000000000102030414
:08507400F4B1FF7F0100000010
:04507C001D02000809
:04508000F90100082A
:10508400030000002507000800000000F4010000F0
:10509400000000000100000025410008000000009D
:1050A4000A0000000000000001000000F9420008AE
:1050B400000000000A0000000000000001000000E1
:1050C4000024F4001000000001000000B4000020DF
:0450D400E8030000ED
:0400000508000BB92B
:00000001FF
